:020000020000FC
:1000000000C00FE50DBF08E00EBF01E007BB07E031
:100010000ABB01E003BF0CD014D019D01F930F937B
:100020001CD029D02F932BD02F910F911F91F3CF5C
:1000300003950A3029F4002713951A3009F4112783
:100040000895F0E0E4E9E00FC895102C0895F0E081
:10005000E4E9E10FC895202C089500E117FCDA9A35
:10006000D99AD998DA98221C111C88940A95B1F76C
:10007000D89AD898089501E0202728BB089528E051
:1000800011EB0BEB0A95F1F71A950000D1F72A95C1
:0E009000B9F708953F065B4F666D7D077F6FE1
:00000001FF
